:100000000C94BB000C946F010C9479010C94D800F3
:100010000C94D8000C94D8000C94D8000C94D80000
:100020000C94D8000C944C020C94D8000C942E0321
:100030000C9438030C94A5010C94D8000C94D800AF
:100040000C9483010C94D8000C9442030C94F80394
:100050000C9404040C9410040C94D8000C941A040E
:100060000C94D8000C94D8006E616E00696E660026
:1000700000407A10F35A00A0724E18090010A5D45F
:10008000E80000E87648170000E40B54020000CABC
:100090009A3B000000E1F505000080969800000002
:1000A00040420F000000A086010000001027000061
:1000B0000000E803000000006400000000000A00E7
:1000C000000000000100000000002C76D888DC67EA
:1000D0004F0823DFC1DFAE59E1B1B796E5E3E45342
:1000E000C63AE651997696E8E6C28426EB898C9B5F
:1000F00062ED407C6FFCEFBC9C9F40F2BAA56FA5FF
:10010000F490055A2AF75C936B6CF9676DC11BFC80
:10011000E0E40D47FEF520E6B500D0ED902E03009B
:10012000943577050080841E080000204E0A0000E8
:1001300000C80C333333330F986E12831141EF8DA7
:100140002114893BE65516CFFEE6DB18D1844B38E7
:100150001BF77C1D901DA4BBE424203284725E2218
:100160008100C9F124ECA1E53D276364696E6F70DD
:10017000737578585B0011241FBECFEFD4E0DEBF4B
:10018000CDBF12E0A0E0B1E0E6E7F7E202C00590E3
:100190000D92A034B107D9F723E0A0E4B2E001C08A
:1001A0001D92A637B207E1F70E942F040C94B913F1
:1001B0000C9400008FEE84B98FE385B917B88FEFE8
:1001C00088B996EE9AB98BB90895E0E6F0E088E137
:1001D000808387E08083089514BC80EE86BD14BCC4
:1001E00008959093C1028093C00280EE86BD84E0A2
:1001F00085BDEEE6F0E080818160808381E08093C0
:100200004603809146038130E1F3EEE6F0E0808121
:100210008E7F808315BC0895E1E8F0E010828CE0C9
:100220009FE790938500809384008CEC9FEF9093E0
:100230008900809388008CEC91E090938B008093F0
:100240008A0010928000108208951092B00081E020
:100250008093B2001092B1000895E1ECF0E01082BA
:1002600082E08093C00086E08093C20087E680939E
:10027000C4001092C50088ED808308958EEC8093B1
:100280007C0087EF80937A00EBE7F0E08081807458
:1002900080830895EBE7F0E080818F7B8083089571
:1002A00015BEF8940E94DA000E942D010E94EC0015
:1002B0000E940C010E9425010E943E010E94E5005F
:1002C0000E944A01789480EC8093660082E08093DB
:1002D000690010926F0010927000789408951F9238
:1002E0000F920FB60F9211240F900FBE0F901F9018
:1002F00018951F920F920FB60F9211240F900FBEF8
:100300000F901F9018951F920F920FB60F92112405
:100310008F939F938091C0029091C1020197909317
:10032000C1028093C0028091C0029091C102892BCA
:1003300019F41092460315BC80EE86BD9F918F91F3
:100340000F900FBE0F901F9018951F920F920FB62F
:100350000F9211248F939F93AF93BF938091660365
:100360009091670390938500809384004B9910C00F
:1003700080914B0381110CC08CE480935B0383E577
:1003800080934A03109281001092B100289A7BC09A
:100390004C9910C080914B03813061F482E58093C9
:1003A0005B0383E580934A03109281001092B100B1
:1003B000289A69C080916C0390916D03A0916E039F
:1003C000B0916F03892B8A2B8B2B49F489E580939D
:1003D0005B03109281001092B100289A54C0809162
:1003E0004B03811114C08091620390916303A0912B
:1003F0006403B09165030197A109B1098093620379
:1004000090936303A0936403B093650313C080913A
:10041000620390916303A0916403B0916503019618
:10042000A11DB11D8093620390936303A0936403A5
:10043000B093650380916C0390916D03A0916E035E
:10044000B0916F030197A109B10980936C03909358
:100450006D03A0936E03B0936F0380916803909136
:100460006903A0916A03B0916B030197A109B109D7
:100470008093680390936903A0936A03B0936B031E
:1004800085B1805885B9BF91AF919F918F910F90A1
:100490000FBE0F901F9018951F920F920FB60F92DC
:1004A0001124CF92DF92EF92FF922F933F934F93BD
:1004B0005F936F937F938F939F93AF93BF93EF93CC
:1004C000FF93809149038093B200809168039091DB
:1004D0006903A0916A03B0916B03181619061A06F6
:1004E0001B06A4F48091550390915603A0915703E5
:1004F000B09158030196A11DB11D809355039093AF
:100500005603A0935703B093580320C0809168030B
:1005100090916903A0916A03B0916B0318161906B4
:100520001A061B069CF08091550390915603A091EA
:100530005703B09158030197A109B109809355035E
:1005400090935603A0935703B0935803809155039B
:1005500090915603A0915703B0915803C090500357
:10056000D0905103E12CF12C8091550390915603CA
:10057000A0915703B09158038C159D05AE05BF059A
:100580004CF0809160039091610390936703809396
:10059000660314C0209155033091560340915703D0
:1005A0005091580362E17AE780E090E00E94DF0D0D
:1005B00020953095309367032093660380914A031A
:1005C000813421F080914A03823499F5C0926C0302
:1005D000D0926D03E0926E03F0926F031092680365
:1005E0001092690310926A0310926B038091550375
:1005F00090915603A0915703B09158038C159D0517
:10060000AE05BF0544F0C0925503D0925603E09268
:100610005703F092580380914A03813419F483E51B
:1006200080934A0380914A03823419F480E58093D1
:100630004A03FF91EF91BF91AF919F918F917F916D
:100640006F915F914F913F912F91FF90EF90DF90CD
:10065000CF900F900FBE0F901F9018951F920F9282
:100660000FB60F9211240F900FBE0F901F90189588
:100670001F920F920FB60F9211240F900FBE0F9082
:100680001F9018951F920F920FB60F9211242F935F
:100690003F934F935F936F937F938F939F93AF930A
:1006A000BF93CF93DF93EF93FF938091C60091E3C5
:1006B0009093C30290E00E94380FEC01982F8B3189
:1006C00031F4E0E6F0E080818861808310C08D30F5
:1006D00031F48091C40281608093C4020FC08A30DB
:1006E00031F48091C40282608093C40207C09830C4
:1006F00029F48091C50281508093C5028091C40283
:10070000833009F04BC08091C502882309F443C0AF
:100710008091C602833581F48091C7028435E9F463
:100720008091C8028F34C9F48091C9028035A9F440
:1007300081E48093470311C0803579F48091C7022A
:10074000813459F48091C802853539F48091C90209
:10075000833519F481E480934703C0E8E0E4F2E0D4
:10076000DF018C2F1D928A95E9F74091C50250E078
:1007700066EC72E0CF010E944B0FE6ECF2E0DF0185
:100780001D92CA95E9F780E38093C3021092C502D7
:100790001092C4021AC01092C40217C0CE01992749
:1007A0000E942F0F892B89F08091C50288235CF06D
:1007B000E091C50281E08E0F8093C502F0E0EA531C
:1007C000FD4FC08302C01092C502FF91EF91DF91EF
:1007D000CF91BF91AF919F918F917F916F915F91D9
:1007E0004F913F912F910F900FBE0F901F90189532
:1007F0001F920F920FB60F921124109248030F9080
:100800000FBE0F901F9018951F920F920FB60F9268
:100810001124109248030F900FBE0F901F9018954F
:100820001F920F920FB60F9211240F900FBE0F90D0
:100830001F9018951F920F920FB60F9211240F90D0
:100840000FBE0F901F901895E0ECF0E0908195FF9F
:10085000FDCF8093C600299880E090E00895CF9363
:10086000DF93CDB7DEB728970FB6F894DEBF0FBE83
:10087000CDBF0E945001E0E7F3E080E091E0938378
:100880008283118210821582148280E8E0E4F2E013
:10089000DF011D928A95E9F71092C5021092C402F9
:1008A00089E48093470381E38093C30289E58093C1
:1008B0005B0380E38093C20249E050E064E070E0B3
:1008C0008CE493E00E947E13809154030E94A70859
:1008D0000E94BB0860936203709363038093640378
:1008E000909365030F2E412C512CF0E86F2EFFE3FF
:1008F0007F2EF02DFE0131964F010F2EF5EB2F2E9E
:10090000F1E03F2EF02D0F2EF4E4AF2EF2E0BF2EDB
:10091000F02D0F2EFCE4CF2EF3E0DF2EF02D0F2E66
:10092000F8E7EF2EF12CF02D0DE611E08091C302D7
:100930008133E1F381E38093C30244E050E06AE352
:1009400071E080E492E00E94540F892B61F480E80A
:10095000E0E4F2E0DF011D928A95E9F78FE391E090
:100960000E94BB0FE3CF44E050E06AE571E080E411
:1009700092E00E94540F892B91F481E38093C3028B
:1009800080E8E0E4F2E0DF011D928A95E9F789E46E
:10099000809347038FE591E00E94BB0FC7CF44E0EF
:1009A00050E065E671E080E492E00E94540F892BEC
:1009B00069F59F928F928AE691E09F938F93BF9201
:1009C000AF920E94EB0F809147030F900F900F9012
:1009D0000F900F900F908934A9F4F70180819181D5
:1009E0009F938F931F930F930E94A50F89819A81E4
:1009F0000E94F100809147030F900F900F900F908D
:100A0000893459F389E48093470390CF44E050E060
:100A100067E771E080E492E00E94540F892B09F0AF
:100A200047C084E593E09F938F9382E593E09F9383
:100A30008F9380E593E09F938F938EE493E09F9351
:100A40008F93DF92CF928CE791E09F938F93BF9229
:100A5000AF920E94EB0FD60118968C910E94A708C6
:100A60000FB6F894DEBF0FBECDBFD60116968D919E
:100A70009C9117974F9730F48FE190E017969C93D5
:100A80008E93169749E050E064E070E0C6010E9442
:100A9000941380915B031F928F938BE891E09F9357
:100AA0008F930E94A50F0F900F900F900F903ECF45
:100AB00044E050E065E971E080E492E00E94540F68
:100AC000892B01F5F60180851F928F9387818F9383
:100AD00086818F9385818F9384818F9383818F9378
:100AE00082818F9381818F9380818F938AE991E0B6
:100AF0009F938F930E94A50F0FB6F894DEBF0FBE91
:100B0000CDBF14CF44E050E060EB71E080E492E0B0
:100B10000E94540F892B09F041C09F928F923F92FF
:100B20002F92BF92AF920E94EB0FD6016D917C91F4
:100B300080E090E00E94680929813A814B815C81C4
:100B40000E94F6090E943209609362037093630366
:100B5000809364039093650382E693E00E94B1085A
:100B600084E48F938AE98F9386E58F9386E68F934B
:100B700088EB91E09F938F930E94A50F80915B0378
:100B80001F928F9385EC91E09F938F930E94A50F06
:100B90000FB6F894DEBF0FBECDBFC8CE44E050E024
:100BA0006FEC71E080E492E00E94540F892B71F5A4
:100BB0006091620370916303809164039091650377
:100BC0000E946A096D837E838F839887D6016D9119
:100BD0007C9180E090E00E9468099B01AC016D81EE
:100BE0007E818F8198850E94C0089F938F937F9309
:100BF0006F9388EB91E09F938F930E94A50F0F90C6
:100C00000F900F900F900F900F9090CE44E050E017
:100C100064ED71E080E492E00E94540F892B09F5A5
:100C200021E030E040E050E029833A834B835C834D
:100C30009F928F9289ED91E09F938F93BF92AF9295
:100C40000E94EB0F69817A818B819C810E94D4077D
:100C500080935B030F900F900F900F900F900F9069
:100C600065CE44E050E06DED71E080E492E00E94DA
:100C7000540F892B09F071C049825A826B827C82A1
:100C80009F928F923F922F92BF92AF920E94EB0F52
:100C9000D6016D917C9180E090E00E946A092981E3
:100CA0003A814B815C810E94F6090E94320960936F
:100CB0005C0370935D0380935E0390935F03809168
:100CC0005B030F900F900F900F900F900F90873550
:100CD00021F080915B038E3479F480915B031F9245
:100CE0008F9382EE91E09F938F930E94A50F0F90B8
:100CF0000F900F900F901ACE80915C0390915D033E
:100D0000A0915E03B0915F03209162033091630371
:100D10004091640350916503BC01CD01621B730BCC
:100D2000840B950B0E94D40780935B0380915B0337
:100D30008735E1F382E693E00E94B10880915B037E
:100D40001F928F938CEE91E09F938F930E94A50F3B
:100D50000F900F900F900F90E9CD44E050E066EFB8
:100D600071E080E492E00E94540F892B09F07FC06B
:100D700049825A826B827C829F928F923F922F92FD
:100D8000BF92AF920E94EB0FF6016081718180E00B
:100D900090E00E946A0929813A814B815C810E941E
:100DA000F6090E94320960935C0370935D0380939F
:100DB0005E0390935F0380915B030F900F900F9001
:100DC0000F900F900F90873521F080915B038E3448
:100DD00079F480915B031F928F938BEF91E09F9347
:100DE0008F930E94A50F0F900F900F900F909ECDA4
:100DF00060915C0370915D0380915E0390915F034D
:100E00000E94D40780935B0380915B038735E1F4F4
:100E10008091550390915603A0915703B0915803C8
:100E2000BF93AF939F938F93A5E0B2E0BF93AF932F
:100E30000E94A50F80915B030F900F900F900F9071
:100E40000F900F90873521F382E693E00E94B1085E
:100E500080915B031F928F9380E192E09F938F9329
:100E60000E94A50F0F900F900F900F905FCD44E060
:100E700050E06AE172E080E492E00E94540F892B16
:100E800009F08DC049825A826B827C829F928F9238
:100E90003F922F92BF92AF920E94EB0FD6016D91BD
:100EA0007C9180E090E00E946A0929813A814B811F
:100EB0005C810E94F6090E94320960935C03709382
:100EC0005D0380935E0390935F0380915B030F90BB
:100ED0000F900F900F900F900F90873529F0809111
:100EE0005B038E3409F044C080915B031F928F93A3
:100EF000AFE1B2E0BF93AF930E94A50F0F900F90A8
:100F00000F900F9013CD60915C0370915D03809101
:100F10005E0390915F030E94D40780935B038091EE
:100F20005B03873521F4809147038134C1F78091B9
:100F300047038134A9F080915C0390915D03A091F7
:100F40005E03B0915F039C01AD0166277727CB015B
:100F5000621B730B840B950B0E94D40780935B0379
:100F600080915B03873521F4809147038134C1F779
:100F700080914703813439F682E693E00E94B108FC
:100F800080915B031F928F9389E292E09F938F93EE
:100F90000E94A50F0F900F900F900F90C7CC83E386
:100FA00092E00E94BB0FC2CC8F929F92AF92BF92F1
:100FB000CF92DF92EF92FF92CF93DF936B017C0190
:100FC00028988AE090E00E94F100C114D104E10465
:100FD000F10409F4ACC014F14C9B20C081E0809373
:100FE0004B035D9AC0926C03D0926D03E0926E0346
:100FF000F0926F03D701C601FF201CF40196A11DDA
:10100000B11DB595A79597958795809368039093A3
:101010006903A0936A03B0936B0330C0FF204CF5C3
:101020004B9B27C010924B035D98F094E094D094B2
:10103000C094C11CD11CE11CF11CC0926C03D09265
:101040006D03E0926E03F0926F03D701C601FF209B
:101050001CF40196A11DB11DB595A795979587958F
:101060008093680390936903A0936A03B0936B0322
:1010700005C0289A4C9B5DC04B9B5DC0CCE4D3E07F
:101080002A813B8140E050E0209355033093560382
:1010900040935703509358030F2EF2E18F2EFAE737
:1010A0009F2EA12CB12CF02DC501B4010E94DF0DA3
:1010B0007901E094F094F0925A03E09259032C8164
:1010C0003D8140E050E0C501B4010E94DF0D209554
:1010D00030953093610320936003F0926703E092B0
:1010E00066032E813F8140E050E064E87EE180E0CD
:1010F00090E00E94DF0D20952093490380914903E1
:101100008093B20087E580934A0387E08093B10023
:10111000E0E7F0E080818160808384E0809381005B
:10112000EFE6F0E080818160808387E505C089E596
:1011300003C082E501C08CE4DF91CF91FF90EF9076
:10114000DF90CF90BF90AF909F908F90089595B112
:101150009F7395B995B120E4829F900D112495B9A4
:101160000895FC01408151816281738180E090E0AB
:101170000E94AC13089580E090E00E948E130895C1
:101180000E94D4080C94BC090E94B50958F00E9432
:10119000AE0940F029F45F3F29F00C94A5095111E4
:1011A0000C94F0090C94AB090E94CD0968F39923C3
:1011B000B1F3552391F3951B550BBB27AA27621753
:1011C0007307840738F09F5F5F4F220F331F441F60
:1011D000AA1FA9F335D00E2E3AF0E0E832D0915094
:1011E0005040E695001CCAF72BD0FE2F29D0660F81
:1011F000771F881FBB1F261737074807AB07B0E8C4
:1012000009F0BB0B802DBF01FF2793585F4F3AF0C9
:101210009E3F510578F00C94A5090C94F0095F3FAE
:10122000E4F3983ED4F3869577956795B795F7954F
:101230009F5FC9F7880F911D9695879597F9089537
:10124000E1E0660F771F881FBB1F621773078407D3
:10125000BA0720F0621B730B840BBA0BEE1F88F7E2
:10126000E09508950E9439096894B1110C94F00931
:1012700008950E94D50988F09F5798F0B92F9927B3
:10128000B751B0F0E1F0660F771F881F991F1AF071
:10129000BA95C9F714C0B13091F00E94EF09B1E0DE
:1012A00008950C94EF09672F782F8827B85F39F0DD
:1012B000B93FCCF3869577956795B395D9F73EF40A
:1012C00090958095709561957F4F8F4F9F4F0895B2
:1012D000E89409C097FB3EF49095809570956195D0
:1012E0007F4F8F4F9F4F9923A9F0F92F96E9BB2786
:1012F0009395F695879577956795B795F111F8CF02
:10130000FAF4BB0F11F460FF1BC06F5F7F4F8F4F6C
:101310009F4F16C0882311F096E911C0772321F062
:101320009EE8872F762F05C0662371F096E8862FFA
:1013300070E060E02AF09A95660F771F881FDAF751
:10134000880F9695879597F9089597F99F6780E894
:1013500070E060E008959FEF80EC089500240A9407
:101360001616170618060906089500240A94121680
:101370001306140605060895092E0394000C11F4B3
:10138000882352F0BB0F40F4BF2B11F460FF04C060
:101390006F5F7F4F8F4F9F4F089557FD9058440FB9
:1013A000551F59F05F3F71F04795880F97FB991FC4
:1013B00061F09F3F79F08795089512161306140681
:1013C000551FF2CF4695F1DF08C01616170618060E
:1013D000991FF1CF86957105610508940895E894E9
:1013E000BB2766277727CB0197F908950E94090A42
:1013F0000C94BC090E94AE0938F00E94B50920F097
:10140000952311F00C94A5090C94AB0911240C94AC
:10141000F0090E94CD0970F3959FC1F3950F50E03C
:10142000551F629FF001729FBB27F00DB11D639F96
:10143000AA27F00DB11DAA1F649F6627B00DA11D3C
:10144000661F829F2227B00DA11D621F739FB00DE2
:10145000A11D621F839FA00D611D221F749F332752
:10146000A00D611D231F849F600D211D822F762FEB
:101470006A2F11249F5750409AF0F1F088234AF0C8
:10148000EE0FFF1FBB1F661F771F881F9150504034
:10149000A9F79E3F510580F00C94A5090C94F00922
:1014A0005F3FE4F3983ED4F3869577956795B795BB
:1014B000F795E7959F5FC1F7FE2B880F911D9695D5
:1014C000879597F90895A3E1B0E0E9E6FAE00C9476
:1014D000FE0D6C014B012A01FC01178216828381EB
:1014E00081FF43C3AE014F5F5F4F3A01F601938125
:1014F000F40193FD859193FF81914F01882309F4B5
:1015000030C3853239F493FD859193FF81914F016A
:10151000853239F4B60190E00E946D0F5201250129
:10152000E5CF10E0F12C20E02032A0F48B3269F0FE
:1015300030F4803259F0833269F420612CC08D324E
:1015400039F0803339F4216026C02260246023C042
:10155000286021C027FD27C030ED380F3A3078F4DD
:1015600026FF06C0FAE01F9F300D1124132F13C071
:101570004AE0F49E300D1124F32E20620CC08E320E
:1015800021F426FDEEC2206406C08C3611F42068DA
:1015900002C0883641F4F40193FD859193FF819157
:1015A0004F018111C1CF9BEB980F933018F420614C
:1015B000805E06C09BE9980F933008F071C12F7EC2
:1015C00026FF16E02F73322E853619F42064322E52
:1015D00008C0863621F4F22FF0683F2E02C01111A8
:1015E000115037FE07C01C3350F4EE24E394E10E93
:1015F00027E00BC0183038F027E017E005C027E0DF
:101600004CE3E42E02C0212FE12C520144E0A40E51
:10161000B11CF20160817181828193810E2DA30141
:101620000E94570E2C01098100FF02C003FF07C072
:1016300031FC08C032FE09C030E2232E07C02DE283
:10164000222E04C09BE2292E01C0212C802F8C70F9
:1016500019F0211068C2A8C237FE0FC0E40C04FFC5
:1016600004C08A81813309F4EA941E1474F5F8E009
:10167000FE1578F588E0E82E2CC036FC2AC0812FB4
:1016800090E0841595059CF02CEF42162FEF520642
:1016900074F0432D4068342E0AC0E2E0F0E0EC0F15
:1016A000FD1FE10FF11D8081803319F411501111DC
:1016B000F4CF37FE0EC0EE24E394E10E812F90E0CC
:1016C000481659062CF4141904C0EE24E39401C002
:1016D00010E037FE06C01414150434F4C20101965C
:1016E00005C085E090E002C081E090E02110019605
:1016F000112331F0212F30E02F5F3F4F820F931FD6
:101700002F2D30E08217930714F4F81A01C0F12C42
:10171000832D897049F4FF2039F0B60180E290E012
:101720000E946D0FFA94F7CF222029F0B601822D86
:1017300090E00E946D0F33FC09C0FF2039F0B60124
:1017400080E390E00E946D0FFA94F7CF37FE5AC005
:10175000942D852D57FE02C090E080E0292E382E72
:1017600020E030E0A2014E1951095D874C87A201AB
:10177000421953095F874E87612F70E04427552730
:10178000461B570B598B488B5FEF2516350649F4DE
:10179000B6018EE290E02A8B3B8B0E946D0F3B8955
:1017A0002A89421453046CF04C855D85421553051B
:1017B00044F4EE85FF85E20FF31FE60DF71D8181EE
:1017C00001C080E351E0251A31082F5F3F4F48895F
:1017D0005989241635064CF0B60190E02A8B3B8BD4
:1017E0000E946D0F2A893B89CFCF2414350439F428
:1017F0009A81963318F4953311F404FF81E3B6010E
:1018000090E04BC08A81813309F00F7EB60190E0F1
:101810000E946D0F111105C034FC18C085E690E0E0
:1018200017C0B6018EE290E00E946D0F82E0EE24B8
:10183000E394E80EF301E80FF11D8081B60190E01A
:101840000E946D0F11508E2D91F7E6CF85E490E048
:10185000B6010E946D0F57FC05C04114510439F4C4
:1018600004FF05C05194419451088DE201C08BE200
:10187000B60190E00E946D0F80E39AE04916510492
:101880002CF08F5F5AE0451A5108F7CFB60190E06F
:101890000E946D0FB601C201C0960E946D0F57C124
:1018A000833631F0833779F0833509F058C021C091
:1018B0005201E2E0AE0EB11CF2018081898301E0A9
:1018C00010E0230114C05201F2E0AF0EB11CF2018E
:1018D0004080518026FF03C0612F70E002C06FEF8F
:1018E0007FEFC2012A8B0E94620F8C012A892F7719
:1018F00015C05201F2E0AF0EB11CF20140805180E0
:1019000026FF03C0612F70E002C06FEF7FEFC201BE
:101910002A8B0E94400F8C012A892068322E23FDD9
:101920001AC08F2D90E008171907A8F4B60180E2BD
:1019300090E00E946D0FFA94F4CFF20137FC85918C
:1019400037FE81912F01B60190E00E946D0FF110DA
:10195000FA94015011090115110579F7F8C0843680
:1019600011F0893659F5520127FF09C0F4E0AF0E96
:10197000B11CF20160817181828193810AC0F2E021
:10198000AF0EB11CF20160817181072E000C880B33
:10199000990B2F76322E97FF09C090958095709500
:1019A00061957F4F8F4F9F4F2068322E2AE030E0A5
:1019B000A3010E940410E82EE6183FC0022F8537CD
:1019C00021F40F7E2AE030E01DC0097F8F3691F0B0
:1019D00018F4883559F0C5C0803719F0883711F0F0
:1019E000C0C0006104FF09C0046007C024FF08C034
:1019F000066006C028E030E005C020E130E002C00B
:101A000020E132E0520107FF09C0F4E0AF0EB11C43
:101A1000F201608171818281938108C0F2E0AF0E92
:101A2000B11CF2016081718180E090E0A3010E940D
:101A30000410E82EE6180F77302E36FE0BC0332D3B
:101A40003E7FE11650F434FE0AC032FC08C0332D4C
:101A50003E7E05C00E2D332D03C00E2D01C0012F7B
:101A600034FF0CC0FE01EE0DF11D8081803311F4B6
:101A7000397E08C032FF05C00E5F04C0832F867810
:101A800009F00F5F33FD13C030FF06C01E2D0F1588
:101A900018F41F0D101B0F2D0F1568F4B60180E20E
:101AA00090E03B8B0E946D0F0F5F3B89F5CF0F15C8
:101AB00010F4F01A01C0F12C34FF12C0B60180E31B
:101AC00090E03B8B0E946D0F3B8932FF17C031FDC8
:101AD00003C088E790E002C088E590E0B6010CC042
:101AE000832F867859F031FF02C08BE201C080E27B
:101AF00037FD8DE2B60190E00E946D0FE11638F4DB
:101B0000B60180E390E00E946D0F1150F7CFEA9488
:101B1000F301EE0DF11D8081B60190E00E946D0F82
:101B2000E110F5CF14C0F4E0FF1558F584E0F81A81
:101B300033FE1EC0211026C003FF2AC008E610E0B5
:101B4000F32DF0713F2EF8018491811124C0FF2004
:101B500009F4E5CCB60180E290E00E946D0FFA94A2
:101B6000F6CFF6018681978126C08FEF9FEF23C0C5
:101B7000B60180E290E00E946D0FFA94F110F8CF68
:101B8000D9CFF12CB601822D90E00E946D0FD4CFF9
:101B90000CE610E0D5CF31108052B60190E00E94E3
:101BA0006D0F0F5F1F4FCFCF23E02F1510F483E091
:101BB000BECFF12CC1CF6396E2E10C941A0E052E34
:101BC00097FB1EF400940E94F60D57FD07D00E946B
:101BD000350E07FC03D04EF40C94F60D509540954D
:101BE000309521953F4F4F4F5F4F089590958095C9
:101BF000709561957F4F8F4F9F4F08952F923F9221
:101C00004F925F926F927F928F929F92AF92BF920C
:101C1000CF92DF92EF92FF920F931F93CF93DF93B8
:101C2000CDB7DEB7CA1BDB0B0FB6F894DEBF0FBE15
:101C3000CDBF09942A88398848885F846E847D8462
:101C40008C849B84AA84B984C884DF80EE80FD8064
:101C50000C811B81AA81B981CE0FD11D0FB6F894DA
:101C6000DEBF0FBECDBFED010895A1E21A2EAA1B63
:101C7000BB1BFD010DC0AA1FBB1FEE1FFF1FA2173C
:101C8000B307E407F50720F0A21BB30BE40BF50B39
:101C9000661F771F881F991F1A9469F760957095C2
:101CA000809590959B01AC01BD01CF01089528302E
:101CB00008F027E03327DA01990F311D87FD916085
:101CC00000966105710539F432602E5F3D9330E373
:101CD0002A95E1F708959F3F30F08038710561053E
:101CE00009F03C5F3C5F3D93913008F08068911DA6
:101CF000DF93CF931F930F93FF92EF92192F987F4B
:101D00009695E92F96959695E90FFF27E653FF4F95
:101D100099273327EE24FF24A701E70105900894B3
:101D2000079428F4360FE71EF81E491F511D660F51
:101D3000771F881F991F0694A1F70590079428F430
:101D4000E70EF81E491F561FC11D770F881F991FE8
:101D5000661F0694A1F70590079428F4F80E491F12
:101D6000561FC71FD11D880F991F661F771F069426
:101D7000A1F70590079420F4490F561FC71FD81FDD
:101D8000990F661F771F881F0694A9F784911095F5
:101D9000177041F0D695C79557954795F794E794F6
:101DA0001A95C1F7E0E7F0E0689415901591359128
:101DB0006591959105907FE27395E118F10A430BC7
:101DC000560BC90BD009C0F7E10CF11E431F561F7B
:101DD000C91FD01D7EF4703311F48A95E6CFE894C4
:101DE000015030F0080F0AF40027021708F4202FE2
:101DF0002395022F7A3328F079E37D932A95E9F72A
:101E000010C07D932A9589F6069497956795379526
:101E100017951794E118F10A430B560BC90BD0091B
:101E200098F023957E9173957A3308F070E37C9354
:101E30002013B8F77E9170617D9330F0839571E344
:101E40007D9370E32A95E1F71124EF90FF900F91B5
:101E50001F91CF91DF91992787FD9095089580324A
:101E600009F091110C94101380528F55D8F70895F2
:101E70009111089581568A5108F480528558089529
:101E8000FC010590615070400110D8F78095909545
:101E90008E0F9F1F0895FB01DC0102C001900D927F
:101EA00041505040D8F70895FB01DC0141505040AB
:101EB00030F08D910190801919F40020B9F7881B3A
:101EC000990B0895FC016150704001900110D8F702
:101ED000809590958E0F9F1F08950F931F93CF931A
:101EE000DF93FB01238121FD03C08FEF9FEF28C00B
:101EF00022FF16C04681578124813581421753073E
:101F000044F4A081B1819D012F5F3F4F3183208335
:101F10008C93268137812F5F3F4F3783268310C0F4
:101F2000EB01092F182F0084F185E02D0995892BED
:101F3000E1F68E819F8101969F838E83812F902F62
:101F4000DF91CF911F910F910895A0E0B0E0EBEAEF
:101F5000FFE00C940E0EAE014B5F5F4FFA016191F2
:101F60007191AF0180917203909173030E94630A93
:101F7000E2E00C942A0E0F931F93CF93DF93E0912E
:101F80007203F0917303238121FF1BC08C01D0E009
:101F9000C0E0F80181918F01609172037091730329
:101FA000DB011896ED91FC911997882331F0099582
:101FB000892B79F3DFEFCFEFECCF8AE00995892BFE
:101FC00019F08FEF9FEF02C08D2F9C2FDF91CF91E3
:101FD0001F910F910895AEE0B0E0E1EFFFE00C94A7
:101FE0000E0E85E08C838B899C899A838983AE0150
:101FF000495E5F4F6D897E89CE0101960E94E21194
:102000002E96E2E00C942A0EFA01AA27283051F10C
:10201000203181F1E8946F936E7F6E5F7F4F8F4F19
:102020009F4FAF4FB1E03ED0B4E03CD0670F781F78
:10203000891F9A1FA11D680F791F8A1F911DA11D5D
:102040006A0F711D811D911DA11D20D009F4689496
:102050003F912AE0269F11243019305D3193DEF63E
:10206000CF010895462F4770405D4193B3E00FD0F4
:10207000C9F7F6CF462F4F70405D4A3318F0495DDF
:1020800031FD4052419302D0A9F7EACFB4E0A695C2
:102090009795879577956795BA95C9F700976105E4
:1020A000710508959B01AC010A2E0694579547953A
:1020B00037952795BA95C9F7620F731F841F951F2F
:1020C000A01D089520FD09C0FC0123FD05C022FFCD
:1020D00002C07383628351834083089544FD10C01E
:1020E00046FD10C0DB01FC01AA0FBB1FEE1FFF1F46
:1020F0001094D1F76A0F7B1F8E1F9F1F31E003C022
:1021000033E001C034E0660F771F881F991F3150FC
:10211000D1F7620F711D811D911D08950F931F93BB
:10212000CF93DF938C01C8010E942713EC0197FD28
:1021300008C00E941313892BB1F7B801CE010E9489
:102140006513CE01DF91CF911F910F910895A1E00A
:10215000B0E0EDEAF0E10C94040E8C01C62E7A0199
:1021600029830E942713AC01552729814B32510541
:1021700021F04D32510569F42068CA94C11002C0A3
:1021800080E076C0C80129830E942713298197FD2A
:10219000F7CF322F3D7FD32E322F307349F5803366
:1021A00039F5BB24BA94BC0C09F44EC0C80129838C
:1021B0000E942713298197FD47C0382F3F7D38356E
:1021C00069F48D2D8264D82ECA94CA94CC20E1F192
:1021D000C8010E94271397FF0BC036C026FF04C01A
:1021E0002D2D2260D22E03C03D2D3261D32ECB2C5B
:1021F000812C912C540120ED280F283080F0D4FE42
:1022000004C0B8010E9465131CC02A3040F0D6FEFD
:10221000F8CF2F7D3FEE320F363098F727504D2DF7
:10222000C501B4010E946E104B015C018D2D8260CE
:10223000D82ECA94CC2059F0C8010E94271397FFCA
:10224000DACFD1FC04C09CCF812C912C5401D7FE55
:1022500008C0B094A09490948094811C911CA11CFF
:10226000B11C2D2DB501A401C7010E94621081E0AF
:102270002196ECE00C94200EA1E2B0E0E2E4F1E162
:102280000C94020E5C017A01CE0101966C0180E291
:10229000F60111928A95E9F7F501838040E050E05C
:1022A000912C712C70E0A1E0B0E0F90183FC8591E4
:1022B00083FE81918F01982F9F01811103C080E0DF
:1022C00090E07CC08E3519F44115510549F1E72F96
:1022D000F0E0E417F5073CF48D3559F18D3219F42F
:1022E000772001F103C0711001C0982E892F8695C7
:1022F000869586958601080F111D892F87703D01EF
:1023000001C0660C8A95EAF7F801808186298083EE
:10231000991559F0991510F49F5FE8CF9150E6CFC9
:1023200071E004C07724739401C0712C4F5F5F4F3C
:10233000BCCF772019F08E8180628E83711103C02B
:102340009924939416C0F6019E012F5D3F4F808122
:1023500080958193E217F307D1F7F2CFE114F104EE
:1023600029F0F7018083C70101967C016150912C0F
:10237000F9F0C50169A30E94271369A197FD16C052
:10238000282F269526952695F601E20FF11D20812E
:1023900030E0AC014770552702C0359527954A9526
:1023A000E2F720FDDBCFB5010E946513911087CFC6
:1023B000E114F10411F0F7011082C801A196EEE0DA
:1023C0000C941E0E4F925F927F928F929F92AF92CB
:1023D000BF92CF92DF92EF92FF920F931F93CF9312
:1023E000DF931F92CDB7DEB76C012B015A01FC01C0
:1023F00017821682712CF601F380F201F3FC8591AD
:10240000F3FE8191382F2F01882309F4F3C090E067
:1024100039830E9413133981892B21F0C6010E9450
:102420008E10E9CF353241F4F201F3FC3591F3FE21
:1024300031912F01353269F4C60139830E94271387
:10244000398197FDD5C03817B1F2B6010E946513E6
:10245000D1C03A3239F4F3FC3591F3FE31912F01BA
:1024600051E001C050E0420110E020ED230F2A307E
:1024700090F45260612F70E080E090E040E2598378
:102480000E946E10162FF401F3FC3591F3FE31918A
:102490004F015981EACF052F232F240151FF03C09B
:1024A000111102C0A7C01FEF383619F03C3659F0A1
:1024B00011C0F401F3FC2591F3FE21912F01283680
:1024C00049F4052F08600460F201F3FC2591F3FE46
:1024D00021912F01222309F48DC0622F70E08AE63A
:1024E00091E029830E941C132981892B09F482C061
:1024F00000FD07C0F501E080F180C50102965C0196
:1025000002C0E12CF12C2E3651F4F60146815781A0
:1025100060E070E0202FC7010E9462106CCF23366C
:1025200091F401FF11E0C6010E94271397FD60C0DE
:10253000E114F10429F0F7018083C70101967C01C1
:10254000115089F751C02B3559F49201A701612F21
:10255000C6010E943C112C01892B09F045C03FC0E7
:10256000C60129830E948E10298197FD41C02F3614
:1025700059F128F4243631F1293649F127C023379F
:1025800069F02537F9F022C0E114F10429F0F701D0
:102590008082C70101967C01115071F0C6010E9432
:1025A00027134C0197FD08C00E941313892B61F378
:1025B000B601C4010E946513E114F104A9F0F7010A
:1025C000108212C0006203C0006101C00064202FAD
:1025D000A701612FC6010E94A710811105C0F60155
:1025E0008381807329F406C000FD05CF739403CF67
:1025F000772019F0872D90E002C08FEF9FEF0F90AA
:10260000DF91CF911F910F91FF90EF90DF90CF90CE
:10261000BF90AF909F908F907F905F904F90089564
:1026200099278827089591110C941013803219F07E
:1026300089508550C8F70895FC010590061621F0D1
:102640000020D9F7C00108953197CF010895CF93A5
:10265000DF93EC012B8120FF33C026FF0AC02F7BC4
:102660002B838E819F8101969F838E838A8190E048
:1026700029C022FF0FC0E881F9818081082E000C5B
:10268000990B009719F420622B831AC03196F983B5
:10269000E8830EC0EA85FB85099597FF09C02B8169
:1026A000019611F080E201C080E1822B8B8308C08B
:1026B0002E813F812F5F3F4F3F832E83992702C09A
:1026C0008FEF9FEFDF91CF910895FB01238120FFD2
:1026D00012C026FD10C08F3F3FEF930761F0828349
:1026E0002F7D206423832681378121503109378350
:1026F0002683992708958FEF9FEF0895DC01CB0182
:10270000FC01F999FECF06C0F2BDE1BDF89A319601
:1027100000B40D9241505040B8F70895A6E1B0E0E2
:1027200044E050E00C948013DC01CB0103C02D91F8
:102730000E949F1341505040D0F70895262FF999D9
:10274000FECF1FBA92BD81BD20BD0FB6F894FA9A94
:10275000F99A0FBE01960895242F0E949F13252FEA
:102760000E949F130C94B4130E949E13272F0C9465
:062770009F13F894FFCF57
:102776000000000200000000240400000000506F6A
:10278600776572204F4E0D004578742052455345AB
:10279600540D00424F524E2052455345540D00579A
:1027A60044542052455345540D0049495244005261
:1027B6004449492043616C69627261746F722056A4
:1027C600312E302C393630300D0053544F500053D3
:1027D600544F500D00544452440025750052445441
:1027E600442025750D0A00414D43460025752C25CC
:1027F600752C25752C25752C2563004346414D20E7
:1028060025630D0A00414D5354005354414D202574
:10281600752C25752C25752C25752C25630D0A0020
:10282600414D5752002566005244414D2025362E13
:1028360032660D0A005752414D2025630D0A0041AC
:102846004D524400414D545300256C6400414D47A0
:102856004F004142474F2025630D0A00474F414D27
:102866002025630D0A00414D525500414252552024
:1028760025630D0A0053542A2A20256C750D0A007B
:102886005255414D2025630D0A00414D53430041E9
:102896004253432025630D0A005343414D202563CF
:1028A6000D0A0042414420434F4D4D414E440D0018
:00000001FF
