S01C0000536F66745F43616C69627261746F725F413136382E73726563CB
S11300000C94DC000C94BE010C94ED010C941C02C5
S11300100C944B020C9483020C94F9000C94F90098
S11300200C94F9000C948E030C94F9000C94630561
S11300300C9459050C94CB020C94F9000C94F9001F
S11300400C94A9020C94F9000C9479040C942105E5
S11300500C9415050C944F050C94F9000C9445056B
S11300600C94F9000C94F9006E616E00696E6600E0
S113007000407A10F35A00A0724E18090010A5D45B
S1130080E80000E87648170000E40B54020000CAB8
S11300909A3B000000E1F5050000809698000000FE
S11300A040420F000000A08601000000102700005D
S11300B00000E803000000006400000000000A00E3
S11300C0000000000100000000002C76D888DC67E6
S11300D04F0823DFC1DFAE59E1B1B796E5E3E4533E
S11300E0C63AE651997696E8E6C28426EB898C9B5B
S11300F062ED407C6FFCEFBC9C9F40F2BAA56FA5FB
S1130100F490055A2AF75C936B6CF9676DC11BFC7C
S1130110E0E40D47FEF520E6B500D0ED902E030097
S1130120943577050080841E080000204E0A0000E4
S113013000C80C333333330F986E12831141EF8DA3
S11301402114893BE65516CFFEE6DB18D1844B38E3
S11301501BF77C1D901DA4BBE424203284725E2214
S11301608100C9F124ECA1E53D276364696E6F70D9
S1130170737578585B65666745464700616E006E27
S113018066696E69747900CDCCCC3D0AD7233C17DF
S1130190B7D13877CC2B329595E6241FB14F0A009E
S11301A00020410000C84200401C4620BCBE4CCA8E
S11301B01B0E5AAEC59D740011241FBECFEFD4E0B0
S11301C0DEBFCDBF13E0A0E0B1E0E6E5F5E302C099
S11301D005900D92A632B107D9F724E0A6E2B3E068
S11301E001C01D92A638B207E1F70E94F3060C94F1
S11301F0A91A0C9400008FEE84B98FE385B917B85F
S11302008FEF88B992EA9AB98BB9089584B7887048
S113021084BFE0E6F0E080818061808310820895ED
S113022014BC80EE86BD14BC08959093A7038093FC
S1130230A60380EE86BD84E085BD80916E0081605A
S113024080936E0081E080932C0480912C04813093
S1130250E1F380916E008E7F80936E0015BC08954B
S1130260E1E8F0E010828CE09FE7909385008093B2
S1130270840010928000108208951092B00081E0F2
S11302808093B2001092B100089588E08093C40076
S11302901092C50082E08093C000E1ECF0E010828F
S11302A086E08093C20088ED808308958EEC80936D
S11302B07C0087EF80937A00EBE7F0E08081108286
S11302C00895EBE7F0E080818F7B80830895CF93DE
S11302D0C82F80FF04C08EE091E00E94AB19C1FFDB
S11302E004C088E191E00E94AB19C2FF04C083E21C
S11302F091E00E94AB19C3FF0EC0809160001F9271
S11303008F938FE291E09F938F930E9495190F90A2
S11303100F900F900F90CF910895109269001DBA1D
S113032082E08093680010926D0083E080936C00FB
S113033010926B000895CF93C4B7F89415BE14BE01
S11303400E94FB000E9445010E9410010E9430019E
S11303500E943D010E9456010E9406010E94610113
S11303600E948D0178941092610010926F00109297
S1130370700078948C2FCF910C9467011F920F9288
S11303800FB60F9211242F933F934F935F936F9364
S11303907F938F939F93AF93BF93EF93FF938BB30D
S11303A01F928F938EE391E09F938F930E949519F0
S11303B00F900F900F900F90FF91EF91BF91AF911D
S11303C09F918F917F916F915F914F913F912F9169
S11303D00F900FBE0F901F9018951F920F920FB69B
S11303E00F9211242F933F934F935F936F937F93B7
S11303F08F939F93AF93BF93EF93FF938BB31F920E
S11304008F938DE491E09F938F930E9495190F90A1
S11304100F900F900F90FF91EF91BF91AF919F912B
S11304208F917F916F915F914F913F912F910F9099
S11304300FBE0F901F9018951F920F920FB60F9238
S113044011242F933F934F935F936F937F938F93D5
S11304509F93AF93BF93EF93FF938BB31F928F93AD
S11304608CE591E09F938F930E9495190F900F90C4
S11304700F900F90FF91EF91BF91AF919F918F914A
S11304807F916F915F914F913F912F910F900FBE8C
S11304900F901F9018951F920F920FB60F92112470
S11304A08F939F9386B183709EE490932F04823040
S11304B051F480914F04893521F080914F048235A5
S11304C0D9F482E50BC0813061F480914F04893501
S11304D021F080914F048C3479F48CE480932F04C0
S11304E00BC0833049F480914F04823429F481E4B1
S11304F080932D0490932F049F918F910F900FBEA2
S11305000F901F9018951F920F920FB60F921124FF
S11305102F933F934F935F936F937F938F939F9307
S1130520AF93BF93EF93FF938CE691E00E94AB19D6
S1130530FF91EF91BF91AF919F918F917F916F91B7
S11305405F914F913F912F910F900FBE0F901F908D
S113055018951F920F920FB60F9211248F939F93A9
S11305608091A6039091A70301979093A70380938A
S1130570A6038091A6039091A703892B19F41092E6
S11305802C0415BC80EE86BD9F918F910F900FBEF9
S11305900F901F9018951F920F920FB60F9211246F
S11305A04F935F936F937F938F939F93AF93BF9377
S11305B080916204909163049093850080938400F9
S11305C04B9906C080913D04811102C08CE407C0A0
S11305D04C990CC080913D04813041F482E58093B4
S11305E04F04109281001092B1008BC080917C0462
S11305F090917D04A0917E04B0917F041816190691
S11306001A061B06BCF480914F048534E1F4409132
S1130610490450914A0460914B0470914C048091B8
S1130620420490914304A0E0B0E084179507A60724
S1130630B7074CF089E580934F0410928100109223
S1130640B100289A5EC080913D0481110CC0809154
S11306505E0490915F04A0916004B09161040197DD
S1130660A109B1090BC080915E0490915F04A0912F
S11306706004B09161040196A11DB11D80935E04D4
S113068090935F04A0936004B093610480917C0410
S113069090917D04A0917E04B0917F040197A109FB
S11306A0B10980937C0490937D04A0937E04B0935D
S11306B07F048091780490917904A0917A04B09198
S11306C07B040197A109B10980937804909379047C
S11306D0A0937A04B0937B045F985F9A809150044E
S11306E090915104A0915204B09153040196A11D1C
S11306F0B11D8093500490935104A0935204B0937D
S11307005304BF91AF919F918F917F916F915F91AE
S11307104F910F900FBE0F901F9018951F920F923C
S11307200FB60F9211242F933F934F935F936F93C0
S11307307F938F939F93AF93BF93EF93FF93809196
S113074030048093B2008091780490917904A09150
S11307507A04B0917B04181619061A061B0664F471
S11307608091490490914A04A0914B04B0914C04A7
S11307700196A11DB11D18C080917804909179044F
S1130780A0917A04B0917B04181619061A061B0668
S11307909CF08091490490914A04A0914B04B0913B
S11307A04C040197A109B1098093490490934A0428
S11307B0A0934B04B0934C044091490450914A04D3
S11307C060914B0470914C048091420490914304D5
S11307D0A0E0B0E0481759076A077B072CF4809122
S11307E04D0490914E0417C04091490450914A041D
S11307F060914B0470914C048091440490914504A1
S1130800A0E0B0E0481759076A077B074CF08091D5
S11308105C0490915D04909363048093620414C01B
S11308202091490430914A0440914B0450914C0466
S113083060EC7DEB80EF9FEF0E947117215031092E
S1130840309363042093620480912D04813409F071
S11308503FC020916204309163042095309540E0BC
S113086050E060E472E48FE090E00E9471172093FE
S1130870490430934A0440934B0450934C0410921F
S113088078041092790410927A0410927B04809177
S1130890440490914504A0E0B0E040914904509193
S11308A04A0460914B0470914C04481759076A0735
S11308B07B0744F08093490490934A04A0934B042B
S11308C0B0934C0489E480932D0485E480934F0411
S11308D0FF91EF91BF91AF919F918F917F916F9114
S11308E05F914F913F912F910F900FBE0F901F90EA
S11308F018951F920F920FB60F9211242F933F93C6
S11309004F935F936F937F938F939F93AF93BF9313
S1130910CF93DF93EF93FF938091C60091E390937D
S1130920A90390E00E94DB18EC018B3131F4809133
S1130930600088618093600015C08D3021F480913F
S1130940AA03816005C08A3031F48091AA038260D1
S11309508093AA0307C0883029F48091AB038150A7
S11309608093AB038091AA038330A9F58091AB03F4
S1130970882371F18091AC03833579F48091AD03C0
S1130980843559F48091AE038F3439F48091AF03E8
S1130990803519F481E480932D04C0E8E6E2F3E0A5
S11309A0DF018C2F1D928A95E9F74091AB0350E04B
S11309B06CEA73E0CF010E94F918ECEAF3E0DF017E
S11309C01D92CA95E9F780E38093A9031092AB03C3
S11309D01092AA0317C0CE0199270E94C118892B2F
S11309E089F08091AB0387FD0BC0E091AB0381E0FC
S11309F08E0F8093AB03F0E0E455FC4FC08302C03C
S1130A001092AB03FF91EF91DF91CF91BF91AF9122
S1130A109F918F917F916F915F914F913F912F9112
S1130A200F900FBE0F901F9018951F920F920FB644
S1130A300F92112410922E040F900FBE0F901F904E
S1130A4018951F920F920FB60F9211242F933F9374
S1130A504F935F936F937F938F939F93AF93BF93C2
S1130A60EF93FF930E941505FF91EF91BF91AF9112
S1130A709F918F917F916F915F914F913F912F91B2
S1130A800F900FBE0F901F9018951F920F920FB6E4
S1130A900F9211240F900FBE0F901F9018951F9264
S1130AA00F920FB60F9211240F900FBE0F901F904C
S1130AB018951F920F920FB60F9211240F900FBE2C
S1130AC00F901F9018951F920F920FB60F9211243A
S1130AD00F900FBE0F901F9018959091C00095FF36
S1130AE0FCCF8093C60080E090E00895CF92DF921F
S1130AF0EF92FF92CF93DF936B017C01C4E6D4E0C5
S1130B00288939894A895B890E94790F2C853D851A
S1130B104E855F850E94A90DA70196010E94790F59
S1130B20288539854A855B850E94A90DA701960110
S1130B300E94790F2C813D814E815F810E94A90D15
S1130B40DF91CF91FF90EF90DF90CF9008952F9297
S1130B503F924F925F926F927F928F929F92AF9249
S1130B60BF92CF92DF92EF92FF920F931F93CF9396
S1130B70DF936B017C0120E030E0A9010E94740F37
S1130B80181694F4C1E020E030E0A9016091390422
S1130B9070913A0480913B0490913C040E94740F3C
S1130BA01816ACF1C0E033C04090390450903A04B8
S1130BB060903B0470903C0420E030E0A901C30144
S1130BC0B2010E94150E282EC82FCC1FCC27CC1F93
S1130BD02091540430915504409156045091570487
S1130BE0C701B6010E94A90D6B017C01309031044C
S1130BF00091320410913304D0913404232D302F0A
S1130C00412F5D2F0E94150E87FF43C0D7C020914E
S1130C105404309155044091560450915704C7012F
S1130C20B6010E94A90D6B017C01709035040091FE
S1130C30360410913704D0913804272D302F412FDA
S1130C405D2F0E94740F18160CF4B8C0CC2309F45D
S1130C5043C02091390430913A0440913B045091AF
S1130C603C04C701B6010E94A90D2B01682EC92FAF
S1130C709B01482F592F672D702F812F9D2F0E9484
S1130C80150E4601570187FD1DC06201E62CFC2E9E
S1130C901DC027FE21C0A7019601C301B2010E9415
S1130CA0A90D2B013C019B01AC01632D702F812FF9
S1130CB09D2F0E94740F4601570118164CF06201D3
S1130CC073010AC0C72CD02EE12EFD2EC1E004C052
S1130CD0C32CD02EE12EFD2EC701B6010E9476054D
S1130CE00E948C0E609358047093590480935A04A4
S1130CF090935B048091580490915904A0915A04F4
S1130D00B0915B0400915E0410915F042091600433
S1130D1030916104BC01CD01601B710B820B930BFC
S1130D200E94A20C80914F048234E1F3CC2399F108
S1130D30C501B4010E9476050E948C0E609358048C
S1130D407093590480935A0490935B0480915804DF
S1130D5090915904A0915A04B0915B0400915E04EF
S1130D6010915F042091600430916104BC01CD01B5
S1130D70601B710B820B930B0E94A20C80914F0499
S1130D808234E1F38092540490925504A092560464
S1130D90B092570408C0C0925404D0925504E09213
S1130DA05604F09257048EE594E00E948E0D84E57B
S1130DB094E00E949B0D80E090E002C081E090E00E
S1130DC0DF91CF911F910F91FF90EF90DF90CF9023
S1130DD0BF90AF909F908F907F906F905F904F9057
S1130DE03F902F900895CF93DF9300D000D0CDB7DC
S1130DF0DEB780E091E090938304809382041092A4
S1130E0081041092800410928504109284040E943C
S1130E109B0180E8E6E2F3E0DF01282F1D922A958A
S1130E20E9F7ECEAF3E0DF011D928A95E9F7109205
S1130E30AB031092AA0389E480932D048EE480937B
S1130E402F0481E38093A90389E580934F0480E311
S1130E508093A8034BE050E068E270E08EE394E0F6
S1130E600E946E1A44E150E064E170E084E694E08C
S1130E700E946E1A4CE050E060E070E081E394E080
S1130E800E946E1A809148040E94840D0E94970D5E
S1130E9060935E0470935F04809360049093610494
S1130EA00E94A40D609354047093550480935604D7
S1130EB090935704CE0101965C010AE213E0412CA1
S1130EC0512C3201439443E9242E42E0342E5DEA4E
S1130ED0852E51E0952E8091A9038133D9F4809118
S1130EE02F048C3449F460EA76E881E090E00E94B3
S1130EF0A20C8EE480932F0480912F04823559F73D
S1130F0060E679E78EEF9FEF0E94A20C8EE4809357
S1130F102F04E1CF21E3F22EF092A90344E050E044
S1130F2068E771E086E293E00E940219892B51F48C
S1130F3080E8E6E2F3E0DF011D928A95E9F78DE7A8
S1130F4091E018C044E050E06AE971E086E293E081
S1130F500E940219892B89F4F092A90380E8E6E241
S1130F60F3E0DF011D928A95E9F789E480932D046B
S1130F708FE991E00E94AB19AECF44E050E065EAFE
S1130F8071E086E293E00E940219892B99F5BF92E1
S1130F90AF928AEA91E09F938F931F930F930E94DD
S1130FA0DB190F900F900F900F900F900F90898185
S1130FB09A81892B21F484E690E09A838983809135
S1130FC02D04893499F480917800909179009F934D
S1130FD08F939F928F920E94951989819A810E9482
S1130FE015010F900F900F900F90E9CF89E4809333
S1130FF02D0471CF44E050E067EB71E086E293E0AA
S11310000E940219892B09F07FC0809167048F9395
S1131010809166048F93809165048F93809164041A
S11310208F938CEB91E09F938F930E94951920915D
S113103064043091650440916604509167046091A2
S113104068047091690480916A0490916B040E9411
S1131050790F9F938F937F936F9391ECE92E91E097
S1131060F92EFF92EF920E94951920916404309119
S11310706504409166045091670460916C0470911A
S11310806D0480916E0490916F040E94790F9F9378
S11310908F937F936F93FF92EF920E949519209103
S11310A06404309165044091660450916704609132
S11310B070047091710480917204909173040E9481
S11310C0790F9F938F937F936F93FF92EF920E9478
S11310D095192091640430916504409166045091FF
S11310E06704609174047091750480917604909102
S11310F077040E94790F9F938F937F936F9388EC6B
S113110091E09F938F93D8C144E050E060ED71E08B
S113111086E293E00E940219892B09F0FEC084E75D
S113112094E09F938F9380E794E09F938F938CE652
S113113094E09F938F9388E694E09F938F9384E643
S113114094E09F938F9385ED91E09F938F931F93EA
S11311500F930E94DB19C0906404D0906504E09062
S11311606604F0906704A701960160916804709189
S1131170690480916A0490916B040E941A0E609332
S113118068047093690480936A0490936B04A701C4
S1131190960160916C0470916D0480916E0490913D
S11311A06F040E941A0E60936C0470936D04809314
S11311B06E0490936F04A70196016091700470917E
S11311C0710480917204909173040E941A0E6093CA
S11311D07004709371048093720490937304A70154
S11311E096016091740470917504809176049091D5
S11311F077040E941A0E60937404709375048093AC
S113120076049093770444E150E064E170E084E66E
S113121094E00E94841A809167048F9380916604FD
S11312208F93809165048F93809164048F9381ECF4
S1131230E82E81E0F82EFF92EF920E9495192091FA
S11312406404309165044091660450916704609190
S113125068047091690480916A0490916B040E94FF
S1131260790F9F938F937F936F93FF92EF920E94D6
S1131270951920916404309165044091660450915D
S1131280670460916C0470916D0480916E04909178
S11312906F040E94790F9F938F937F936F93FF92B4
S11312A0EF920E9495190FB6F894DEBF0FBECDBF22
S11312B02091640430916504409166045091670460
S11312C06091700470917104809172049091730420
S11312D00E94790F9F938F937F936F93FF92EF9266
S11312E00E9495192091640430916504409166042C
S11312F05091670460917404709175048091760430
S1131300909177040E94790F9F938F937F936F93AB
S113131088EC91E09F938F93CFC044E050E064EE5B
S113132071E086E293E00E940219892B59F56091DD
S11313305E0470915F048091600490916104C09098
S11313405E04D0905F04E0906004F09061040E9419
S1131350C40E209164043091650440916604509158
S113136067040E94790F9F938F937F936F93FF92EB
S1131370EF92DF92CF9289EE91E09F938F930E9438
S1131380951989C144E050E06AEF71E086E293E088
S11313900E940219892B09F051C089E394E09F93BC
S11313A08F9385E394E09F938F9381E394E09F93DD
S11313B08F938BED91E09F938F931F930F930E94D4
S11313C0DB194CE050E060E070E081E394E00E94BF
S11313D0841A809134048F93809133048F93809185
S11313E032048F93809131048F938FEF91E09F9318
S11313F08F930E949519809138048F9380913704BC
S11314008F93809136048F93809135048F938DE16F
S113141092E09F938F930E94951980913C048F933F
S113142080913B048F9380913A048F938091390487
S11314308F938BE092E09F938F933EC044E050E003
S113144063E172E086E293E00E940219892BB9F508
S1131450809134048F93809133048F93809132046C
S11314608F93809131048F9388E192E09F938F93BF
S11314700E949519809138048F93809137048F933B
S1131480809136048F93809135048F938DE192E09F
S11314909F938F930E94951980913C048F93809120
S11314A03B048F9380913A048F93809139048F93F6
S11314B08BE092E09F938F930E949519ECC044E0D7
S11314C050E064E272E086E293E00E940219892B04
S11314D009F040C088E494E09F938F9386E494E0FD
S11314E09F938F9384E494E09F938F9382E494E09A
S11314F09F938F938EE394E09F938F9389E292E07E
S11315009F938F931F930F930E94DB19809148043C
S11315100E94840D0FB6F894DEBF0FBECDBF80913C
S11315204604909147044F9730F48FE190E09093F4
S11315304704809346044BE050E068E270E08EE399
S113154094E00E94841A80914F041F928F9388E341
S113155092E04AC144E050E062E472E086E293E043
S11315600E940219892B49F5809148041F928F9398
S1131570809147048F93809146048F938091450412
S11315808F93809144048F93809143048F9380912F
S113159042048F93809141048F93809140048F93F0
S11315A080913F048F9380913E048F9387E492E06F
S11315B09F938F930E9495196EC044E050E060E6BB
S11315C072E086E293E00E940219892B09F043C07D
S11315D0BF92AF9281EE91E09F938F931F930F93ED
S11315E00E94DB1969817A818B819C810E94760536
S11315F00E948C0E60935E0470935F048093600479
S1131600909361048EE594E00E948E0D89819A8105
S1131610AB81BC818093540490935504A0935604E9
S1131620B093570484E594E00E949B0D8091540488
S113163090915504A0915604B091570420914F0401
S1131640BF93AF939F938F931F922F9385E692E05E
S11316509F938F931EC044E050E065E772E086E2FA
S113166093E00E940219892BE1F480915404909133
S11316705504A0915604B091570420914F04BF9390
S1131680AF939F938F931F922F938AE792E09F9338
S11316908F930E9495190FB6F894DEBF0FBECDBF8D
S11316A01ACC44E050E06AE872E086E293E00E94DB
S11316B00219892B09F04BC049825A826B827C82C1
S11316C0BF92AF928FE892E09F938F931F930F93F3
S11316D00E94DB1969817A818B819C810E94A20C12
S11316E00F900F900F900F900F900F9080914F04D8
S11316F0823431F54091490450914A0460914B047D
S113170070914C0480917C0490917D04A0917E049E
S1131710B0917F0420914F047F936F935F934F9315
S1131720BF93AF939F938F931F922F933F922F92C8
S11317300E9495190FB6F894DEBF0FBECDBFD6CF69
S113174080914F041F928F9385EA92E04DC044E04C
S113175050E06FEA72E086E293E00E940219892B5E
S113176009F044C0BF92AF92A1EEB1E0BF93AF9332
S11317701F930F930E94DB19209154043091550458
S1131780409156045091570469817A818B819C81E0
S11317900E94A80D69837A838B839C8320914F04D4
S11317A00F900F900F900F900F900F90223421F014
S11317B020914F04253439F480914F041F928F9364
S11317C084EB92E011C00E94A705892B39F4809123
S11317D04F041F928F938EEB92E006C080914F04CA
S11317E01F928F9388EC92E09F933FC044E050E0B7
S11317F066ED72E086E293E00E940219892BE9F516
S1131800BF92AF9281EE91E09F938F931F930F93BA
S11318100E94DB1980914F040F900F900F900F904E
S11318200F900F90823421F080914F04853439F465
S113183080914F041F928F938BED92E015C06981C4
S11318407A818B819C810E94A705892B39F4809130
S11318504F041F928F9385EE92E006C080914F044F
S11318601F928F938FEE92E09F938F930E9495190E
S11318700F900F900F900F902ECB44E050E06DEF3F
S113188072E086E293E00E940219892B09F057C0A6
S11318901092500410925104109252041092530466
S11318A060E472E48FE090E00E94A20C80914F0407
S11318B0823521F080912D048134C1F710925004B7
S11318C010925104109252041092530460EC7DEB78
S11318D080EF9FEF0E94A20C80914F048C3421F082
S11318E080912D048134C1F780915004909151046A
S11318F0A0915204B0915304BF93AF939F938F93DD
S113190082E093E09F938F930E9495196091500415
S113191070915104809152049091530422E030E07C
S113192040E050E00E947117CA01B9010E94A20C64
S11319300F900F900F900F900F900F90CCCA8DE0E6
S113194093E018CBCF92DF92EF92FF92CF93C091A6
S11319504F04C23429F48AE193E00E94AB19CDC04C
S113196029E520934F04611571058105910509F45A
S1131970C3C0ECF04C9B45C021E020933D045D9A2C
S113198060937C0470937D0480937E0490937F0421
S1131990DC01CB01B595A79597958795809378043D
S11319A090937904A0937A04B0937B0438C04B9B42
S11319B028C010923D045D98CC24DD247601C61A1B
S11319C0D70AE80AF90AC0927C04D0927D04E09216
S11319D07E04F0927F0422E030E040E050E00E9478
S11319E0711750954095309521953F4F4F4F5F4F5C
S11319F0209378043093790440937A0450937B04C1
S1131A000EC04C9905C082E580934F04C2E575C0B1
S1131A104B9905C08CE480934F04CCE46EC02091B4
S1131A2042043091430440E050E020934904309351
S1131A304A0440934B0450934C0480ECC82E8DEB25
S1131A40D82E80EFE82EFF24FA94C701B6010E9435
S1131A5071172150310930934E0420934D04209185
S1131A6044043091450440E050E0C701B6010E94AF
S1131A7071172150310930935D0420935C048091E7
S1131A804D0490914E0490936304809362042091DA
S1131A9046043091470440E050E068EB77E18EEF74
S1131AA09FEF0E94711721502093300428988AE0F8
S1131AB090E00E941501809130048093B2008091DF
S1131AC0620490916304909385008093840084E081
S1131AD08093B10082E080938100809170008160E6
S1131AE08093700080916F00816080936F0082E426
S1131AF080934F04C2E401C0C9E58C2FCF91FF90BD
S1131B00EF90DF90CF90089595B19F7395B995B1FB
S1131B1020E4829F900D112495B90895FC01408121
S1131B2051816281738180E190E00C949C1A80E180
S1131B3090E00C947E1AFC01408151816281738192
S1131B408CE090E00C949C1A8CE090E00C947E1A4B
S1131B505058BB27AA270E94C00D0C943A0F0E942C
S1131B602C0F38F00E94330F20F039F49F3F19F402
S1131B7026F40C94290F0EF4E095E7FB0C94230F44
S1131B80E92F0E944B0F58F3BA17620773078407B3
S1131B90950720F079F4A6F50C946D0F0EF4E095FA
S1131BA00B2EBA2FA02D0B01B90190010C01CA0113
S1131BB0A0011124FF27591B99F0593F50F4503EBE
S1131BC068F11A16F040A22F232F342F4427585FB0
S1131BD0F3CF469537952795A795F0405395C9F7C8
S1131BE07EF41F16BA0B620B730B840BBAF0915080
S1131BF0A1F0FF0FBB1F661F771F881FC2F70EC01F
S1131C00BA0F621F731F841F48F4879577956795F1
S1131C10B795F7959E3F08F0B0CF9395880F08F0DD
S1131C209927EE0F9795879508950E94FF0E08F463
S1131C3081E008950E942E0E0C943A0F0E94330FF7
S1131C4058F00E942C0F40F029F45F3F29F00C94C7
S1131C50230F51110C946E0F0C94290F0E944B0FFB
S1131C6068F39923B1F3552391F3951B550BBB27C7
S1131C70AA2762177307840738F09F5F5F4F220F0C
S1131C80331F441FAA1FA9F335D00E2E3AF0E0E803
S1131C9032D091505040E695001CCAF72BD0FE2F4D
S1131CA029D0660F771F881FBB1F261737074807E1
S1131CB0AB07B0E809F0BB0B802DBF01FF27935899
S1131CC05F4F3AF09E3F510578F00C94230F0C942B
S1131CD06E0F5F3FE4F3983ED4F38695779567954E
S1131CE0B795F7959F5FC9F7880F911D96958795CE
S1131CF097F90895E1E0660F771F881FBB1F6217ED
S1131D0073078407BA0720F0621B730B840BBA0BAA
S1131D10EE1F88F7E09508950E94930E6894B11120
S1131D200C946E0F08950E94530F88F09F5798F0FB
S1131D30B92F9927B751B0F0E1F0660F771F881FCC
S1131D40991F1AF0BA95C9F714C0B13091F00E94E6
S1131D506D0FB1E008950C946D0F672F782F8827CD
S1131D60B85F39F0B93FCCF3869577956795B3950D
S1131D70D9F73EF490958095709561957F4F8F4F7C
S1131D809F4F0895E89409C097FB3EF49095809581
S1131D90709561957F4F8F4F9F4F9923A9F0F92F2D
S1131DA096E9BB279395F695879577956795B795AB
S1131DB0F111F8CFFAF4BB0F11F460FF1BC06F5F91
S1131DC07F4F8F4F9F4F16C0882311F096E911C0A3
S1131DD0772321F09EE8872F762F05C0662371F0C4
S1131DE096E8862F70E060E02AF09A95660F771FD8
S1131DF0881FDAF7880F9695879597F90895990FB4
S1131E000008550FAA0BE0E8FEEF16161706E807C0
S1131E10F907C0F012161306E407F50798F0621BE1
S1131E20730B840B950B39F40A2661F0232B242BB6
S1131E30252B21F408950A2609F4A140A6958FEFD5
S1131E40811D811D089597F99F6780E870E060E027
S1131E5008959FEF80EC089500240A94161617063F
S1131E6018060906089500240A9412161306140687
S1131E7005060895092E0394000C11F4882352F0EA
S1131E80BB0F40F4BF2B11F460FF04C06F5F7F4FA2
S1131E908F4F9F4F089557FD9058440F551F59F089
S1131EA05F3F71F04795880F97FB991F61F09F3F43
S1131EB079F087950895121613061406551FF2CF6C
S1131EC04695F1DF08C0161617061806991FF1CFBC
S1131ED086957105610508940895E894BB276627E3
S1131EE07727CB0197F908950E94FF0E08F48FEF2E
S1131EF008950E948C0F0C943A0F0E942C0F38F016
S1131F000E94330F20F0952311F00C94230F0C94AE
S1131F10290F11240C946E0F0E944B0F70F3959FA0
S1131F20C1F3950F50E0551F629FF001729FBB27CC
S1131F30F00DB11D639FAA27F00DB11DAA1F649F68
S1131F406627B00DA11D661F829F2227B00DA11D1B
S1131F50621F739FB00DA11D621F839FA00D611DA1
S1131F60221F749F3327A00D611D231F849F600DC2
S1131F70211D822F762F6A2F11249F5750409AF0EB
S1131F80F1F088234AF0EE0FFF1FBB1F661F771F77
S1131F90881F91505040A9F79E3F510580F00C9442
S1131FA0230F0C946E0F5F3FE4F3983ED4F38695B1
S1131FB077956795B795F795E7959F5FC1F7FE2BE2
S1131FC0880F911D9695879597F90895A0E1B0E043
S1131FD0ECEEFFE00C9490177C011B016A01FC01FC
S1131FE017821682838181FF44C39E012F5F3F4F76
S1131FF03901F7019381F10193FD859193FF81915B
S11320001F01882309F431C3853239F493FD859186
S113201093FF81911F01853239F4B70190E00E944A
S1132020591956016501E5CF10E0512C912CFFE1BF
S1132030F915D8F08B3279F038F4803279F08332A4
S1132040A1F4F92DF0612EC08D3261F0803369F472
S1132050292D21602DC0392D3260932E892D846065
S1132060982E2AC0E92DE86015C097FC2DC020EDFC
S1132070280F2A3088F496FE06C03AE0139F200DFC
S11320801124122F19C08AE0589E200D1124522EBB
S1132090E92DE0629E2E10C08E3231F496FCE5C22A
S11320A0F92DF0649F2E08C08C3621F4292D206868
S11320B0922E02C0883641F4F10193FD859193FF7D
S11320C081911F018111B3CF9BEB980F933020F4C2
S11320D0992D9061805E07C09BE9980F933008F0BA
S11320E066C1992D9F7E96FF16E09F73992E8536C3
S11320F019F49064992E08C0863621F4392F30687B
S1132100932E02C01111115097FE07C01C3350F4D6
S113211044244394410E27E00BC0183038F027E0E4
S113212017E005C027E09CE3492E02C0212F412C73
S1132130560184E0A80EB11CF60160817181828190
S11321409381042DA3010E94E9176C01F981FC8796
S1132150F0FF02C0F3FF06C091FC06C092FE06C069
S113216000E205C00DE203C00BE201C000E08C8573
S11321708C7019F001115AC29BC297FE10C04C0C0E
S1132180FC85F4FF04C08A81813309F44A94141451
S113219074F528E0241578F588E0482E2CC096FCC8
S11321A02AC0812F90E08C159D059CF03CEFC3164E
S11321B03FEFD30674F0892D8068982E0AC0E2E0C0
S11321C0F0E0EC0FFD1FE10FF11D8081803319F465
S11321D011501111F4CF97FE0EC044244394410EC4
S11321E0812F90E0C816D9062CF41C1904C044248D
S11321F0439401C010E097FE06C01C141D0434F47F
S1132200C601019605C085E090E002C081E090E03F
S113221001110196112331F0212F30E02F5F3F4F40
S1132220820F931F252D30E08217930714F4581A58
S113223001C0512C892D897049F4552039F0B7011A
S113224080E290E00E9459195A94F7CF002329F0B4
S1132250B701802F90E00E94591993FC09C05520C2
S113226039F0B70180E390E00E9459195A94F7CFEE
S113227097FE4CC04601D7FE02C0812C912CC601AA
S113228088199909F301E80FF91FFE87ED87960174
S113229024193109388B2F87012F10E011950195EE
S11322A011093FEF8316930629F4B7018EE290E0FB
S11322B00E945919C814D9044CF08F85988988153F
S11322C0990524F4ED85FE85818101C080E3F1E068
S11322D08F1A91082D853E852F5F3F4F3E872D87AE
S11322E0801691062CF0B70190E00E945919D9CFBD
S11322F0C814D90441F49A81963320F4953319F41F
S11323003C8534FF81E3B70190E04EC08A8181337C
S113231019F09C859F7E9C87B70190E00E94591913
S1132320111105C094FC18C085E690E017C0B701F0
S11323308EE290E00E9459191E5F82E001E0080FCE
S1132340F301E80FF11D8081B70190E00E94591953
S1132350802F0113F3CFE6CF85E490E0B7010E940C
S11323605919D7FC06C0C114D10441F4EC85E4FF2B
S113237005C0D194C194D1088DE201C08BE2B701AC
S113238090E00E94591980E32AE0C216D1042CF08F
S11323908F5FFAE0CF1AD108F7CFB70190E00E941F
S11323A05919B701C601C0960E94591954C1833600
S11323B031F0833779F0833509F056C020C05601D7
S11323C032E0A30EB11CF6018081898301E010E0A4
S11323D0630112C05601F2E0AF0EB11CF601C080D9
S11323E0D18096FE03C0612F70E002C06FEF7FEFD3
S11323F0C6010E9410198C01F92DFF7714C05601F3
S113240022E0A20EB11CF601C080D18096FE03C06A
S1132410612F70E002C06FEF7FEFC6010E94EE18DB
S11324208C01F92DF0689F2EF3FD1AC0852D90E0E4
S113243008171907A8F4B70180E290E00E9459191F
S11324405A94F4CFF60197FC859197FE81916F0120
S1132450B70190E00E94591951105A940150110982
S11324600115110579F7F7C0843611F0893661F545
S1132470560197FE09C024E0A20EB11CF60160814A
S11324807181828193810AC0F2E0AF0EB11CF60122
S113249060817181072E000C880B990BF92DFF7652
S11324A09F2E97FF09C090958095709561957F4FF9
S11324B08F4F9F4FF0689F2E2AE030E0A3010E94C7
S11324C00D1AC82EC6183FC0092D853721F40F7E7A
S11324D02AE030E01DC0097F8F3691F018F488356A
S11324E059F0C3C0803719F0883711F0BEC00061BD
S11324F004FF09C0046007C094FE08C0066006C05B
S113250028E030E005C020E130E002C020E132E004
S1132510560107FF09C084E0A80EB11CF6016081D2
S113252071818281938108C0F2E0AF0EB11CF60183
S11325306081718180E090E0A3010E940D1AC82E91
S1132540C6180F77902E96FE0BC0092D0E7FC1166C
S113255050F494FE0AC092FC08C0092D0E7E05C0FA
S1132560DC2C092D03C0DC2C01C0D12E04FF0DC0CE
S1132570FE01EC0DF11D8081803311F4097E09C048
S113258002FF06C0D394D39404C0802F867809F048
S1132590D39403FD11C000FF06C01C2DD51480F494
S11325A0150D1D190DC0D51458F4B70180E290E043
S11325B00E945919D394F7CFD51410F45D1801C0B3
S11325C0512C04FF10C0B70180E390E00E94591918
S11325D002FF17C001FD03C088E790E002C088E550
S11325E090E0B7010CC0802F867859F001FF02C03B
S11325F08BE201C080E207FD8DE2B70190E00E940A
S11326005919C11638F4B70180E390E00E945919B2
S11326101150F7CFCA94F301EC0DF11D8081B7017D
S113262090E00E945919C110F5CF15C0F4E0F515DA
S113263060F584E0581A93FE1FC0011127C02C8551
S113264023FF2AC008E610E0392D3071932EF801DB
S11326508491811124C0552009F4E4CCB70180E2AF
S113266090E00E9459195A94F6CFF7018681978118
S113267026C08FEF9FEF23C0B70180E290E00E9455
S113268059195A945110F8CFD8CF512CB701802F33
S113269090E00E945919D3CF0CE610E0D5CF9110E9
S11326A08052B70190E00E9459190F5F1F4FCFCF9E
S11326B023E0251510F483E0BDCF512CC0CF6096E4
S11326C0E2E10C94AC1720FD09C0FC0123FD05C018
S11326D022FF02C07383628351834083089544FDC3
S11326E017C046FD17C0AB01BC01DA01FB01AA0FFC
S11326F0BB1FEE1FFF1F1094D1F74A0F5B1F6E1F05
S11327007F1FCB01BA01660F771F881F991F09C06D
S113271033E001C034E0660F771F881F991F3150E2
S1132720D1F7620F711D811D911D08950F931F93A1
S1132730CF93DF938C01C8010E941B19EC0197FD14
S113274008C00E94CA18892BB1F7B801CE010E94B3
S1132750F419CE01DF91CF911F910F910895A0E05C
S1132760B0E0E5EBF3E10C9496177C018B016A0170
S1132770D22F0E941B199C0133272B32310521F0E3
S11327802D32310559F4D0680150110911F480E05B
S11327906BC0C7010E941B1997FDF9CFCD2FCD7FC8
S11327A02D2F207319F5803309F5580181E0A81AFB
S11327B0B10809F445C0C7010E941B1997FD40C028
S11327C09C012F7D33272835310551F4C264025012
S11327D01109B1F1C7010E941B1997FF07C030C04E
S11327E0D6FF02C0C26001C0C2618501812C912C58
S11327F0540120ED280F283080F0C4FF04C0B70135
S11328000E94F4191AC02A3040F0C6FFF8CF2F7D79
S11328103FEE320F363098F727504C2FC501B401E4
S11328200E946F134B015C01C2600150110959F001
S1132830C7010E941B1997FFDCCFC1FD04C0A7CFBD
S1132840812C912C5401C7FF08C0B094A09490949B
S11328508094811C911CA11CB11C2C2FB501A401D6
S1132860C6010E94631381E0CDB7DEB7ECE00C949F
S1132870B217A0E2B0E0EFE3F4E10C9492175C012C
S11328804B017A018E010F5F1F4F680180E2F8014E
S113289011928A95E9F7F501538040E050E0612CEC
S11328A090E0712CA1E0B0E0F90153FC859153FE56
S11328B081918F01482E9F01811103C080E090E037
S11328C096C08E3519F44115510551F1672D70E00C
S11328D0641775073CF48D3561F18D3219F4992331
S11328E011F103C0992309F46DC0842D8695869552
S11328F08695F601E80FF11D842D87708D0102C0C5
S1132900000F111F8A95E2F7C8019081892B8083FB
S1132910641459F0461410F44394E7CF4A94E5CF75
S11329207724739403C091E001C090E04F5F5F4F40
S1132930BBCF992319F08E8180628E83711003C0FE
S11329407724739419C0F6019E012F5D3F4F808157
S1132950809581932E173F07D1F7F2CFE114F1044C
S113296031F0F7018083B7016F5F7F4F7B0171E026
S1132970871A9108712CF9F0C5010E941B1997FD63
S113298018C0FC01FF2723E0F595E7952A95E1F7A8
S1132990EC0DFD1D208130E0AC014770552702C0CD
S11329A0359527954A95E2F720FDD8CFB5010E94C9
S11329B0F419711083CFE114F10411F0F7011082BE
S11329C0C80115C0682F669566956695F601E60FF1
S11329D0F11D682F67708D0102C0000F111F6A95E9
S11329E0E2F7B8017081672B6083682E9FCFA096B1
S11329F0E0E10C94AE172F923F924F925F926F9248
S1132A007F929F92AF92BF92CF92DF92EF92FF920A
S1132A100F931F93CF93DF936C018B011A010E94D4
S1132A201B19EC0199278B32910529F08D9781F4BC
S1132A3030E8932E01C0912C0150110911F480E06B
S1132A400CC1C6010E941B19EC0197FF02C0F7CF0D
S1132A50912CCE010E94D3188936910531F08E361F
S1132A60910599F5CCE7D1E002C0CFE7D1E02196FA
S1132A70FE013197B490BB20C9F00150110991F0C7
S1132A80C6010E941B197C0197FD0CC00E94D3183B
S1132A909927EB2DF0E08E179F0749F3B601C70184
S1132AA00E94F419C258D14051F603C0CF57D14007
S1132AB029F080E090E0A0E8BFE704C080E090E067
S1132AC0A0ECBFE7BC01CD01B8C0412C512C3201B0
S1132AD0E12CF12C2C2F20532A3010F5E92DE26043
S1132AE0BE2E892D887092FE06C0811120C0FFEF92
S1132AF0EF1AFF0A1CC0882319F081E0E81AF108D4
S1132B0040E2C301B2010E946F132B013C016839FA
S1132B1079498949994158F0F92DF660BF2E07C0CB
S1132B202E3F89F493FC0FC0292D2860B22E01504A
S1132B30110941F0C6010E941B19EC019B2C97FF5F
S1132B40C9CF01C09B2C91FE7ACFCE018F7D9927EE
S1132B508534910509F042C0580181E0A81AB108F2
S1132B6009F46DCFC6010E941B19EC0197FD67CFD4
S1132B7099278B32910529F08D9769F4E92DE0614D
S1132B809E2E5801F2E0AF1AB10809F458CFC601DD
S1132B900E941B19EC01CE01C0970A9708F04FCF91
S1132BA08501A12CB12CB501BB0C880B990B2C2FE2
S1132BB0205340E20E946F135B010150110939F068
S1132BC0C6010E941B19EC01C0970A9760F394FE9A
S1132BD003C0B194A194B108EA0CFB1C012B31F0A1
S1132BE0D7FD04C0B601CE010E94F419C301B2019D
S1132BF00E94C20EF7FE06C0F194E194F108CBE9FD
S1132C00D1E002C0C3EBD1E06E0128E1C21AD108C1
S1132C1000E210E0E016F10650F0FE012591359136
S1132C20459154910E94790FE01AF10AF3CF249749
S1132C3016950795CC16DD0669F797FE05C0DC01ED
S1132C40CB01B058BC01CD012114310429F0F101AC
S1132C50608371838283938381E0DF91CF911F919D
S1132C600F91FF90EF90DF90CF90BF90AF909F9027
S1132C707F906F905F904F903F902F900895A0E0C9
S1132C80B0E0E5E4F6E10C9494175C01EB014A0131
S1132C90FC0117821682612CF5010381FE0103FDFC
S1132CA0859103FF8191182FEF01882309F40FC147
S1132CB090E00E94CA18892B21F0C5010E94961346
S1132CC0EBCF153241F4FE0103FD159103FF119181
S1132CD0EF01153281F4C5010E941B1997FDF5C05F
S1132CE0412F50E09C01332724173507A9F2B50181
S1132CF00E94F419ECC01A3241F403FD159103FF4C
S1132D001191EF017724739401C0712CE12CF12C03
S1132D1020ED210F2A3088F4F72DF2607F2EB701C1
S1132D2080E090E040E20E946F137B01FE0103FD0E
S1132D30159103FF1191EF01EBCF71FE04C0E11473
S1132D40F10421F4C4C0EE24EA94FE2C183619F0E0
S1132D501C3661F014C0FE0103FD159103FF1191AF
S1132D60EF01183661F4872D8860782E972D9460D2
S1132D70792EFE0103FD159103FF1191EF0111233B
S1132D8009F4A5C0612F70E08AE691E00E94E3187F
S1132D90892B09F49CC070FC07C0F401C080D18069
S1132DA0C40102964C0102C0C12CD12C1E3651F430
S1132DB0F5014681578160E070E0272DC6010E942D
S1132DC063136ACF1336B9F471FC03C0EE24E394A1
S1132DD0F12CC5010E941B1997FD77C0C114D104C1
S1132DE029F0F6018083C60101966C0191E0E91A8D
S1132DF0F10879F766C01B3559F49E01A601B701A5
S1132E00C5010E943914EC01892B09F05AC054C041
S1132E10C5010E94961397FD58C01F36E1F140F496
S1132E201436A9F11936D1F1183509F03EC02BC07A
S1132E301337A9F018F4103731F137C0153739F1C9
S1132E40183709F132C0C114D10429F0F601008306
S1132E50C60101966C0191E0E91AF10871F0C5010F
S1132E600E941B198C0197FD08C00E94CA18892B67
S1132E7051F3B501C8010E94F419C114D10409F138
S1132E80F60110821EC0F72DF0647F2E07C0872D37
S1132E908062782E03C0972D9061792E272DA6018C
S1132EA0B701C5010E94AF1305C0A601B701C50152
S1132EB00E94FB14811105C0F5018381807329F4FC
S1132EC006C070FCE9CE6394E7CE662019F0862D27
S1132ED090E002C08FEF9FEFCDB7DEB7EEE00C9429
S1132EE0B017052E97FB1EF400940E94881757FD17
S1132EF007D00E94C71707FC03D04EF40C94881720
S1132F0050954095309521953F4F4F4F5F4F089511
S1132F1090958095709561957F4F8F4F9F4F089541
S1132F202F923F924F925F926F927F928F929F92D5
S1132F30AF92BF92CF92DF92EF92FF920F931F93C3
S1132F40CF93DF93CDB7DEB7CA1BDB0B0FB6F89474
S1132F50DEBF0FBECDBF09942A88398848885F84B4
S1132F606E847D848C849B84AA84B984C884DF8025
S1132F70EE80FD800C811B81AA81B981CE0FD11D09
S1132F800FB6F894DEBF0FBECDBFED010895A1E2E8
S1132F901A2EAA1BBB1BFD010DC0AA1FBB1FEE1FCF
S1132FA0FF1FA217B307E407F50720F0A21BB30B1A
S1132FB0E40BF50B661F771F881F991F1A9469F796
S1132FC060957095809590959B01AC01BD01CF01F2
S1132FD00895283008F027E03327DA01990F311DCE
S1132FE087FD916000966105710539F432602E5FAA
S1132FF03D9330E32A95E1F708959F3F30F0803800
S11330007105610509F03C5F3C5F3D93913008F028
S11330108068911DDF93CF931F930F93FF92EF92DC
S1133020192F987F9695E92F96959695E90FFF2786
S1133030E653FF4F99273327EE24FF24A701E70126
S113304005900894079428F4360FE71EF81E491FCC
S1133050511D660F771F881F991F0694A1F70590CD
S1133060079428F4E70EF81E491F561FC11D770F59
S1133070881F991F661F0694A1F70590079428F4EA
S1133080F80E491F561FC71FD11D880F991F661FB1
S1133090771F0694A1F70590079420F4490F561F53
S11330A0C71FD81F990F661F771F881F0694A9F79B
S11330B084911095177041F0D695C795579547950B
S11330C0F794E7941A95C1F7E0E7F0E06894159057
S11330D0159135916591959105907FE27395E1186D
S11330E0F10A430B560BC90BD009C0F7E10CF11ED2
S11330F0431F561FC91FD01D7EF4703311F48A95E7
S1133100E6CFE894015030F0080F0AF400270217C4
S113311008F4202F2395022F7A3328F079E37D9346
S11331202A95E9F710C07D932A9589F60694979518
S11331306795379517951794E118F10A430B560BC9
S1133140C90BD00998F023957E9173957A3308F0D2
S113315070E37C932013B8F77E9170617D9330F017
S1133160839571E37D9370E32A95E1F71124EF9041
S1133170FF900F911F91CF91DF91992787FD909533
S11331800895803209F091110C946B1A80528F5576
S1133190D8F7089591110C946B1A803219F0895064
S11331A08550C8F708959111089581548A5108F4FF
S11331B0805E855A08959111089581568A5108F4C4
S11331C0805285580895FC010590061621F00020D0
S11331D0D9F7C00108953197CF010895FC010590F6
S11331E0615070400110D8F7809590958E0F9F1F05
S11331F00895FB01DC0102C001900D924150504042
S1133200D8F70895FB01DC014150504030F08D9116
S11332100190801919F40020B9F7881B990B0895BF
S1133220FC016150704001900110D8F78095909591
S11332308E0F9F1F0895CF93DF93EC012B8120FF06
S113324033C026FF0AC02F7B2B838E819F8101967A
S11332509F838E838A8190E029C022FF0FC0E8817A
S1133260F9818081082E000C990B009719F42062D3
S11332702B831AC03196F983E8830EC0EA85FB8557
S1133280099597FF09C02B81019611F080E201C0D6
S113329080E1822B8B8308C02E813F812F5F3F4FBB
S11332A03F832E83992702C08FEF9FEFDF91CF9149
S11332B008950F931F93CF93DF93FB01238121FD87
S11332C003C08FEF9FEF2CC022FF16C046815781A9
S11332D0248135814217530744F4A081B1819D01B3
S11332E02F5F3F4F318320838C93268137812F5F5B
S11332F03F4F3783268314C08B01EC01FB0100840C
S1133300F185E02D0995892BE1F6D80116968D916A
S11333109C911797019617969C938E931697CE01BE
S1133320DF91CF911F910F910895A0E0B0E0EBE9F8
S1133330F9E10C94A017AE014B5F5F4FFA01619164
S11333407191AF0180918204909183040E94E60FF1
S1133350E2E00C94BC170F931F93CF93DF93E0919B
S11333608204F0918304238121FF1BC08C01D0E0EF
S1133370C0E0F80181918F0160918204709183040F
S1133380DB011896ED91FC911997882331F009958A
S1133390892B79F3DFEFCFEFECCF8AE00995892B06
S11333A019F08FEF9FEF02C08D2F9C2FDF91CF91EB
S11333B01F910F910895AEE0B0E0E1EEF9E10C94B5
S11333C0A01785E08C838B899C899A838983AE01BD
S11333D0495E5F4F6D897E89CE0101960E943F163A
S11333E02E96E2E00C94BC17FB01238120FF12C04F
S11333F026FD10C08F3F3FEF930761F082832F7D3E
S11334002064238326813781215031093783268321
S1133410992708958FEF9FEF0895FA01AA2728307E
S113342051F1203181F1E8946F936E7F6E5F7F4F8D
S11334308F4F9F4FAF4FB1E03ED0B4E03CD0670F09
S1133440781F891F9A1FA11D680F791F8A1F911D5C
S1133450A11D6A0F711D811D911DA11D20D009F4AC
S113346068943F912AE0269F11243019305D3193EE
S1133470DEF6CF010895462F4770405D4193B3E0D7
S11334800FD0C9F7F6CF462F4F70405D4A3318F07E
S1133490495D31FD4052419302D0A9F7EACFB4E02F
S11334A0A6959795879577956795BA95C9F70097E7
S11334B06105710508959B01AC010A2E0694579588
S11334C0479537952795BA95C9F7620F731F841FDF
S11334D0951FA01D0895992788270895DC01CB0125
S11334E0FC01F999FECF06C0F2BDE1BDF89A319610
S11334F000B40D9241505040B8F70895A6E1B0E0F1
S113350044E050E00C94701ADC01CB0103C02D910F
S11335100E948F1A41505040D0F70895262FF999F0
S1133520FECF1FBA92BD81BD20BD0FB6F894FA9AA2
S1133530F99A0FBE01960895242F0E948F1A252F01
S11335400E948F1A0C94A41A0E948E1A272F0C948E
S10935508F1AF894FFCF6E
S113355600000002000000006D0500000000506F2E
S1133566776572204F4E0D004578742052455345B9
S1133576540D00424F524E2052455345540D0057A8
S113358644542052455345542025580D0A00457885
S1133596745F496E745F302025780D0A004578748F
S11335A65F496E745F312025780D0A004578745F93
S11335B6496E745F30302025780D0A004578745FB3
S11335C6496E745F32320D004949524400524449EF
S11335D649204D6F6E6F6368726F6D61746F7220F0
S11335E64D536D4C203834370D0053544F5000530F
S11335F6544F500D0054445244002575005244540F
S1133606442025750D0A00504C5244005244504C37
S11336162025332E36672C0025332E36670D0A00F7
S1133626504C57520025662C25662C25662C25669B
S11336362C25660053545244005244535420256C9E
S1133646692C25332E35670D0A0047525752005709
S11336565247522025352E32672C0025352E3267E7
S11336660D0A004752524400524447522025352E33
S113367632672C00414D43460025662C25752C25C2
S1133686752C25752C2563004346414D2025630D75
S11336960A00414D5354005354414D2025332E35D1
S11336A6672C25752C25752C25752C25630D0A008C
S11336B6414D5752005752414D2025632C25332E38
S11336C633660D0A00414D5244005244414D2025B3
S11336D6632C25332E33660D0A00414D54530025C1
S11336E66C64005453414D2025632C256C752C25A0
S11336F66C750D0A005453414D2025630D0A004193
S11337064D474F004142474F2025630D0A00474F5E
S1133716414D2025630D0A004142474F206E6F72CA
S11337262025630D0A00414D525500414252552051
S113373625630D0A005255414D2025630D0A0041AB
S1133746425255206E6F722025630D0A00414D4387
S11337564C00434C414D20256C640D0A0042414403
S113376620434F4D4D414E440D0042757379204D13
S10937766F76650D0000F2
S9030000FC
